{
  "address": "0xC3940eA3af4ab51bC9BA95019FC7B1Bc6E060e15",
  "abi": [
    {
      "anonymous": false,
      "inputs": [
        {
          "indexed": true,
          "internalType": "address",
          "name": "user",
          "type": "address"
        },
        {
          "indexed": true,
          "internalType": "uint256",
          "name": "pid",
          "type": "uint256"
        },
        {
          "indexed": false,
          "internalType": "uint256",
          "name": "amount",
          "type": "uint256"
        }
      ],
      "name": "Deposit",
      "type": "event"
    },
    {
      "anonymous": false,
      "inputs": [
        {
          "indexed": true,
          "internalType": "address",
          "name": "user",
          "type": "address"
        },
        {
          "indexed": true,
          "internalType": "uint256",
          "name": "pid",
          "type": "uint256"
        },
        {
          "indexed": false,
          "internalType": "uint256",
          "name": "amount",
          "type": "uint256"
        }
      ],
      "name": "EmergencyWithdraw",
      "type": "event"
    },
    {
      "anonymous": false,
      "inputs": [
        {
          "indexed": true,
          "internalType": "address",
          "name": "user",
          "type": "address"
        },
        {
          "indexed": true,
          "internalType": "uint256",
          "name": "pid",
          "type": "uint256"
        },
        {
          "indexed": false,
          "internalType": "uint256",
          "name": "amount",
          "type": "uint256"
        }
      ],
      "name": "Harvest",
      "type": "event"
    },
    {
      "anonymous": false,
      "inputs": [
        {
          "indexed": true,
          "internalType": "address",
          "name": "previousOwner",
          "type": "address"
        },
        {
          "indexed": true,
          "internalType": "address",
          "name": "newOwner",
          "type": "address"
        }
      ],
      "name": "OwnershipTransferred",
      "type": "event"
    },
    {
      "anonymous": false,
      "inputs": [
        {
          "indexed": true,
          "internalType": "address",
          "name": "user",
          "type": "address"
        },
        {
          "indexed": true,
          "internalType": "uint256",
          "name": "pid",
          "type": "uint256"
        },
        {
          "indexed": false,
          "internalType": "uint256",
          "name": "amount",
          "type": "uint256"
        }
      ],
      "name": "Withdraw",
      "type": "event"
    },
    {
      "inputs": [
        {
          "internalType": "uint128",
          "name": "_allocPoint",
          "type": "uint128"
        },
        {
          "internalType": "contract IERC20",
          "name": "_lpToken",
          "type": "address"
        },
        {
          "internalType": "uint256",
          "name": "_startBlock",
          "type": "uint256"
        },
        {
          "internalType": "bool",
          "name": "_withUpdate",
          "type": "bool"
        }
      ],
      "name": "add",
      "outputs": [],
      "stateMutability": "nonpayable",
      "type": "function"
    },
    {
      "inputs": [
        {
          "internalType": "uint256",
          "name": "_pid",
          "type": "uint256"
        },
        {
          "internalType": "uint256",
          "name": "_amount",
          "type": "uint256"
        }
      ],
      "name": "deposit",
      "outputs": [],
      "stateMutability": "nonpayable",
      "type": "function"
    },
    {
      "inputs": [],
      "name": "eggPerBlock",
      "outputs": [
        {
          "internalType": "uint128",
          "name": "",
          "type": "uint128"
        }
      ],
      "stateMutability": "view",
      "type": "function"
    },
    {
      "inputs": [],
      "name": "eggToken",
      "outputs": [
        {
          "internalType": "contract IERC20",
          "name": "",
          "type": "address"
        }
      ],
      "stateMutability": "view",
      "type": "function"
    },
    {
      "inputs": [
        {
          "internalType": "uint256",
          "name": "_pid",
          "type": "uint256"
        }
      ],
      "name": "emergencyWithdraw",
      "outputs": [],
      "stateMutability": "nonpayable",
      "type": "function"
    },
    {
      "inputs": [],
      "name": "foundation",
      "outputs": [
        {
          "internalType": "address",
          "name": "",
          "type": "address"
        }
      ],
      "stateMutability": "view",
      "type": "function"
    },
    {
      "inputs": [],
      "name": "foundationBalance",
      "outputs": [
        {
          "internalType": "uint256",
          "name": "",
          "type": "uint256"
        }
      ],
      "stateMutability": "view",
      "type": "function"
    },
    {
      "inputs": [],
      "name": "foundationProportion",
      "outputs": [
        {
          "internalType": "uint64",
          "name": "",
          "type": "uint64"
        }
      ],
      "stateMutability": "view",
      "type": "function"
    },
    {
      "inputs": [
        {
          "internalType": "uint256",
          "name": "_pid",
          "type": "uint256"
        }
      ],
      "name": "harvest",
      "outputs": [],
      "stateMutability": "nonpayable",
      "type": "function"
    },
    {
      "inputs": [],
      "name": "massUpdatePools",
      "outputs": [],
      "stateMutability": "nonpayable",
      "type": "function"
    },
    {
      "inputs": [],
      "name": "owner",
      "outputs": [
        {
          "internalType": "address",
          "name": "",
          "type": "address"
        }
      ],
      "stateMutability": "view",
      "type": "function"
    },
    {
      "inputs": [
        {
          "internalType": "uint256",
          "name": "_pid",
          "type": "uint256"
        },
        {
          "internalType": "address",
          "name": "_user",
          "type": "address"
        }
      ],
      "name": "pendingEgg",
      "outputs": [
        {
          "internalType": "uint256",
          "name": "",
          "type": "uint256"
        }
      ],
      "stateMutability": "view",
      "type": "function"
    },
    {
      "inputs": [
        {
          "internalType": "uint256",
          "name": "",
          "type": "uint256"
        }
      ],
      "name": "poolInfo",
      "outputs": [
        {
          "internalType": "contract IERC20",
          "name": "lpToken",
          "type": "address"
        },
        {
          "internalType": "uint256",
          "name": "balance",
          "type": "uint256"
        },
        {
          "internalType": "uint128",
          "name": "allocPoint",
          "type": "uint128"
        },
        {
          "internalType": "uint256",
          "name": "lastRewardBlock",
          "type": "uint256"
        },
        {
          "internalType": "uint256",
          "name": "accEggPerShare",
          "type": "uint256"
        },
        {
          "internalType": "uint256",
          "name": "startBlock",
          "type": "uint256"
        }
      ],
      "stateMutability": "view",
      "type": "function"
    },
    {
      "inputs": [],
      "name": "poolLength",
      "outputs": [
        {
          "internalType": "uint256",
          "name": "",
          "type": "uint256"
        }
      ],
      "stateMutability": "view",
      "type": "function"
    },
    {
      "inputs": [],
      "name": "renounceOwnership",
      "outputs": [],
      "stateMutability": "nonpayable",
      "type": "function"
    },
    {
      "inputs": [
        {
          "internalType": "uint256",
          "name": "_pid",
          "type": "uint256"
        },
        {
          "internalType": "uint128",
          "name": "_allocPoint",
          "type": "uint128"
        },
        {
          "internalType": "bool",
          "name": "_withUpdate",
          "type": "bool"
        }
      ],
      "name": "set",
      "outputs": [],
      "stateMutability": "nonpayable",
      "type": "function"
    },
    {
      "inputs": [
        {
          "internalType": "contract IERC20",
          "name": "_eggAddress",
          "type": "address"
        },
        {
          "internalType": "uint128",
          "name": "_eggPerBlock",
          "type": "uint128"
        },
        {
          "internalType": "address",
          "name": "_foundation",
          "type": "address"
        },
        {
          "internalType": "uint64",
          "name": "_foundationProportion",
          "type": "uint64"
        }
      ],
      "name": "setRunEnv",
      "outputs": [],
      "stateMutability": "nonpayable",
      "type": "function"
    },
    {
      "inputs": [],
      "name": "totalAllocPoint",
      "outputs": [
        {
          "internalType": "uint128",
          "name": "",
          "type": "uint128"
        }
      ],
      "stateMutability": "view",
      "type": "function"
    },
    {
      "inputs": [
        {
          "internalType": "address",
          "name": "newOwner",
          "type": "address"
        }
      ],
      "name": "transferOwnership",
      "outputs": [],
      "stateMutability": "nonpayable",
      "type": "function"
    },
    {
      "inputs": [
        {
          "internalType": "address",
          "name": "_foundation",
          "type": "address"
        }
      ],
      "name": "updateFoundation",
      "outputs": [],
      "stateMutability": "nonpayable",
      "type": "function"
    },
    {
      "inputs": [
        {
          "internalType": "uint256",
          "name": "_pid",
          "type": "uint256"
        }
      ],
      "name": "updatePool",
      "outputs": [],
      "stateMutability": "nonpayable",
      "type": "function"
    },
    {
      "inputs": [
        {
          "internalType": "uint256",
          "name": "",
          "type": "uint256"
        },
        {
          "internalType": "address",
          "name": "",
          "type": "address"
        }
      ],
      "name": "userInfo",
      "outputs": [
        {
          "internalType": "uint256",
          "name": "amount",
          "type": "uint256"
        },
        {
          "internalType": "uint256",
          "name": "rewardDebt",
          "type": "uint256"
        }
      ],
      "stateMutability": "view",
      "type": "function"
    },
    {
      "inputs": [
        {
          "internalType": "uint256",
          "name": "_pid",
          "type": "uint256"
        },
        {
          "internalType": "uint256",
          "name": "_amount",
          "type": "uint256"
        }
      ],
      "name": "withdraw",
      "outputs": [],
      "stateMutability": "nonpayable",
      "type": "function"
    },
    {
      "inputs": [],
      "name": "withdrawFoundation",
      "outputs": [],
      "stateMutability": "nonpayable",
      "type": "function"
    }
  ],
  "transactionHash": "0xac995a9c95d36ed082a33e84889b4cb4873602c7c8b376d436af6f43cee9af9e",
  "args": [],
  "numDeployments": 3,
  "solcInputHash": "902d6280a834f922619934d33fb86331",
  "bytecode": "0x608060405234801561001057600080fd5b5061001a3361001f565b61006f565b600080546001600160a01b038381166001600160a01b0319831681178455604051919092169283917f8be0079c531659141344cd1fd0a4f28419497f9722a3daafe3b4186f6b6457e09190a35050565b61170c8061007e6000396000f3fe608060405234801561001057600080fd5b50600436106101985760003560e01c80638da5cb5b116100e3578063b8c7c65a1161008c578063e2bbb15811610066578063e2bbb158146103db578063f2fde38b146103ee578063f456426f1461040157600080fd5b8063b8c7c65a146103ac578063c3ab2510146103b5578063ddc63262146103c857600080fd5b80639437e8e1116100bd5780639437e8e11461037e57806399119d2214610386578063a1a4d4a41461039957600080fd5b80638da5cb5b146103135780639214bd831461032457806393f1a40b1461033757600080fd5b8063441a3e7011610145578063630b5ba11161011f578063630b5ba1146102d6578063715018a6146102de57806372dcfb0a146102e657600080fd5b8063441a3e701461029d57806351eb05a6146102b05780635312ea8e146102c357600080fd5b806317caf6f11161017657806317caf6f1146102215780633ffdd83e1461025357806341fbb0501461026657600080fd5b8063081e3eda1461019d5780630e894127146101b45780631526fe27146101c9575b600080fd5b6001545b6040519081526020015b60405180910390f35b6101c76101c236600461141e565b610414565b005b6101dc6101d736600461145e565b610509565b604080516001600160a01b03909716875260208701959095526001600160801b03909316938501939093526060840152608083019190915260a082015260c0016101ab565b60045461023b90600160801b90046001600160801b031681565b6040516001600160801b0390911681526020016101ab565b6101c761026136600461148c565b610563565b600654610285906801000000000000000090046001600160a01b031681565b6040516001600160a01b0390911681526020016101ab565b6101c76102ab3660046114f3565b61062d565b6101c76102be36600461145e565b610892565b6101c76102d136600461145e565b61099e565b6101c7610ab9565b6101c7610ae4565b6006546102fa9067ffffffffffffffff1681565b60405167ffffffffffffffff90911681526020016101ab565b6000546001600160a01b0316610285565b6101c7610332366004611515565b610af8565b61036961034536600461155b565b60026020908152600092835260408084209091529082529020805460019091015482565b604080519283526020830191909152016101ab565b6101c7610cd1565b600354610285906001600160a01b031681565b60045461023b906001600160801b031681565b6101a160055481565b6101c76103c336600461158b565b610d62565b6101c76103d636600461145e565b610e0e565b6101c76103e93660046114f3565b610f54565b6101c76103fc36600461158b565b611187565b6101a161040f36600461155b565b611217565b61041c61133d565b801561042a5761042a610ab9565b60006001848154811061043f5761043f6115af565b906000526020600020906006020160020160009054906101000a90046001600160801b03169050826001858154811061047a5761047a6115af565b6000918252602090912060069091020160020180546fffffffffffffffffffffffffffffffff19166001600160801b03928316179055838116908216146105035760045483906104db908390600160801b90046001600160801b03166115db565b6104e59190611602565b600480546001600160801b03928316600160801b0292169190911790555b50505050565b6001818154811061051957600080fd5b60009182526020909120600690910201805460018201546002830154600384015460048501546005909501546001600160a01b03909416955091936001600160801b039091169286565b61056b61133d565b6003805473ffffffffffffffffffffffffffffffffffffffff19166001600160a01b03958616179055600480546fffffffffffffffffffffffffffffffff19166001600160801b039490941693909317909255600680547fffffffff00000000000000000000000000000000000000000000000000000000166801000000000000000092909416919091027fffffffffffffffffffffffffffffffffffffffffffffffff0000000000000000169290921767ffffffffffffffff909116179055565b600060018381548110610642576106426115af565b6000918252602080832086845260028252604080852033865290925292208054600690920290920192508311156106c05760405162461bcd60e51b815260206004820152601260248201527f77697468647261773a206e6f7420676f6f64000000000000000000000000000060448201526064015b60405180910390fd5b6106c984610892565b6000816001015464e8d4a51000846004015484600001546106ea9190611622565b6106f49190611639565b6106fe919061165b565b9050801561077d5760035460405163a9059cbb60e01b8152336004820152602481018390526001600160a01b039091169063a9059cbb906044016020604051808303816000875af1158015610757573d6000803e3d6000fd5b505050506040513d601f19601f8201168201806040525081019061077b919061166e565b505b831561082d5783826000016000828254610797919061165b565b92505081905550838360010160008282546107b2919061165b565b9091555050825460405163a9059cbb60e01b8152336004820152602481018690526001600160a01b039091169063a9059cbb906044016020604051808303816000875af1158015610807573d6000803e3d6000fd5b505050506040513d601f19601f8201168201806040525081019061082b919061166e565b505b6004830154825464e8d4a510009161084491611622565b61084e9190611639565b6001830155604051848152859033907ff279e6a1f5e320cca91135676d9cb6e44ca8a08c0b88342bcdb1144f6511b568906020015b60405180910390a35050505050565b6000600182815481106108a7576108a76115af565b90600052602060002090600602019050806003015443116108c6575050565b600181015460008190036108df57504360039091015550565b60008260030154436108f1919061165b565b60045460028501549192506000916001600160801b03600160801b830481169291811691610920911685611622565b61092a9190611622565b6109349190611639565b9050826109468264e8d4a51000611622565b6109509190611639565b846004015461095f919061168b565b60048501554360038501556006546109819067ffffffffffffffff1682611639565b60056000828254610992919061168b565b90915550505050505050565b6000600182815481106109b3576109b36115af565b6000918252602080832085845260028252604080852033865290925290832080546006939093029091016001810180549195509193906109f490849061165b565b90915550508154815460405163a9059cbb60e01b815233600482015260248101919091526001600160a01b039091169063a9059cbb906044016020604051808303816000875af1158015610a4c573d6000803e3d6000fd5b505050506040513d601f19601f82011682018060405250810190610a70919061166e565b508054604051908152839033907fbb757047c2b5f3974fe26b7c10f732e7bce710b0952a71082702781e62ae05959060200160405180910390a360008082556001909101555050565b60015460005b81811015610ae057610ad081610892565b610ad98161169e565b9050610abf565b5050565b610aec61133d565b610af66000611397565b565b610b0061133d565b8015610b0e57610b0e610ab9565b6000824311610b1d5782610b1f565b435b600454909150610b40908690600160801b90046001600160801b0316611602565b600480546001600160801b03908116600160801b938216939093029290921790556040805160c0810182526001600160a01b039687168152600060208201818152988416928201928352606082019485526080820181815260a08301978852600180548082018255925291517fb10e2d527612073b26eecdfd717e6a320cf44b4afac2b0732d9fcbe2b7fa0cf66006909202918201805473ffffffffffffffffffffffffffffffffffffffff1916919099161790975596517fb10e2d527612073b26eecdfd717e6a320cf44b4afac2b0732d9fcbe2b7fa0cf7870155517fb10e2d527612073b26eecdfd717e6a320cf44b4afac2b0732d9fcbe2b7fa0cf8860180546fffffffffffffffffffffffffffffffff191691909216179055517fb10e2d527612073b26eecdfd717e6a320cf44b4afac2b0732d9fcbe2b7fa0cf98401555091517fb10e2d527612073b26eecdfd717e6a320cf44b4afac2b0732d9fcbe2b7fa0cfa82015590517fb10e2d527612073b26eecdfd717e6a320cf44b4afac2b0732d9fcbe2b7fa0cfb90910155565b60035460065460055460405163a9059cbb60e01b81526001600160a01b036801000000000000000090930483166004820152602481019190915291169063a9059cbb906044016020604051808303816000875af1158015610d36573d6000803e3d6000fd5b505050506040513d601f19601f82011682018060405250810190610d5a919061166e565b506000600555565b6006546801000000000000000090046001600160a01b03163314610dc85760405162461bcd60e51b815260206004820152600f60248201527f6f6e6c7920666f756e646174696f6e000000000000000000000000000000000060448201526064016106b7565b600680546001600160a01b0390921668010000000000000000027fffffffff0000000000000000000000000000000000000000ffffffffffffffff909216919091179055565b600060018281548110610e2357610e236115af565b60009182526020808320858452600282526040808520338652909252922060069091029091019150610e5483610892565b805415610f4f57600064e8d4a5100083600401548360000154610e779190611622565b610e819190611639565b90506000826001015482610e95919061165b565b90508015610f145760035460405163a9059cbb60e01b8152336004820152602481018390526001600160a01b039091169063a9059cbb906044016020604051808303816000875af1158015610eee573d6000803e3d6000fd5b505050506040513d601f19601f82011682018060405250810190610f12919061166e565b505b60018301829055604051818152859033907f71bab65ced2e5750775a0613be067df48ef06cf92a496ebf7663ae066092495490602001610883565b505050565b600060018381548110610f6957610f696115af565b60009182526020808320868452600282526040808520338652909252922060069091029091019150610f9a84610892565b805415611057576000816001015464e8d4a5100084600401548460000154610fc29190611622565b610fcc9190611639565b610fd6919061165b565b905080156110555760035460405163a9059cbb60e01b8152336004820152602481018390526001600160a01b039091169063a9059cbb906044016020604051808303816000875af115801561102f573d6000803e3d6000fd5b505050506040513d601f19601f82011682018060405250810190611053919061166e565b505b505b82156111245781546040517f23b872dd000000000000000000000000000000000000000000000000000000008152336004820152306024820152604481018590526001600160a01b03909116906323b872dd906064016020604051808303816000875af11580156110cc573d6000803e3d6000fd5b505050506040513d601f19601f820116820180604052508101906110f0919061166e565b5082826001016000828254611105919061168b565b909155505080548390829060009061111e90849061168b565b90915550505b6004820154815464e8d4a510009161113b91611622565b6111459190611639565b6001820155604051838152849033907f90890809c654f11d6e72a28fa60149770a0d11ec6c92319d6ceb2bb0a4ea1a159060200160405180910390a350505050565b61118f61133d565b6001600160a01b03811661120b5760405162461bcd60e51b815260206004820152602660248201527f4f776e61626c653a206e6577206f776e657220697320746865207a65726f206160448201527f646472657373000000000000000000000000000000000000000000000000000060648201526084016106b7565b61121481611397565b50565b6000806001848154811061122d5761122d6115af565b600091825260208083208784526002825260408085206001600160a01b0389168652909252922060046006909202909201908101546001820154600383015492945090914311801561127e57508015155b15611303576000846003015443611295919061165b565b60045460028701549192506000916001600160801b03600160801b8304811692918116916112c4911685611622565b6112ce9190611622565b6112d89190611639565b9050826112ea8264e8d4a51000611622565b6112f49190611639565b6112fe908561168b565b935050505b6001830154835464e8d4a510009061131c908590611622565b6113269190611639565b611330919061165b565b9450505050505b92915050565b6000546001600160a01b03163314610af65760405162461bcd60e51b815260206004820181905260248201527f4f776e61626c653a2063616c6c6572206973206e6f7420746865206f776e657260448201526064016106b7565b600080546001600160a01b0383811673ffffffffffffffffffffffffffffffffffffffff19831681178455604051919092169283917f8be0079c531659141344cd1fd0a4f28419497f9722a3daafe3b4186f6b6457e09190a35050565b80356001600160801b038116811461140b57600080fd5b919050565b801515811461121457600080fd5b60008060006060848603121561143357600080fd5b83359250611443602085016113f4565b9150604084013561145381611410565b809150509250925092565b60006020828403121561147057600080fd5b5035919050565b6001600160a01b038116811461121457600080fd5b600080600080608085870312156114a257600080fd5b84356114ad81611477565b93506114bb602086016113f4565b925060408501356114cb81611477565b9150606085013567ffffffffffffffff811681146114e857600080fd5b939692955090935050565b6000806040838503121561150657600080fd5b50508035926020909101359150565b6000806000806080858703121561152b57600080fd5b611534856113f4565b9350602085013561154481611477565b92506040850135915060608501356114e881611410565b6000806040838503121561156e57600080fd5b82359150602083013561158081611477565b809150509250929050565b60006020828403121561159d57600080fd5b81356115a881611477565b9392505050565b634e487b7160e01b600052603260045260246000fd5b634e487b7160e01b600052601160045260246000fd5b6001600160801b038281168282160390808211156115fb576115fb6115c5565b5092915050565b6001600160801b038181168382160190808211156115fb576115fb6115c5565b8082028115828204841417611337576113376115c5565b60008261165657634e487b7160e01b600052601260045260246000fd5b500490565b81810381811115611337576113376115c5565b60006020828403121561168057600080fd5b81516115a881611410565b80820180821115611337576113376115c5565b60007fffffffffffffffffffffffffffffffffffffffffffffffffffffffffffffffff82036116cf576116cf6115c5565b506001019056fea2646970667358221220cc4f5389e3ec59b036af978437daf31112ad1dd96b019ef3dc38bd770d990d7164736f6c63430008110033",
  "devdoc": {
    "kind": "dev",
    "methods": {
      "owner()": {
        "details": "Returns the address of the current owner."
      },
      "renounceOwnership()": {
        "details": "Leaves the contract without owner. It will not be possible to call `onlyOwner` functions anymore. Can only be called by the current owner. NOTE: Renouncing ownership will leave the contract without an owner, thereby removing any functionality that is only available to the owner."
      },
      "transferOwnership(address)": {
        "details": "Transfers ownership of the contract to a new account (`newOwner`). Can only be called by the current owner."
      }
    },
    "version": 1
  },
  "userdoc": {
    "kind": "user",
    "methods": {},
    "version": 1
  },
  "storageLayout": {
    "storage": [
      {
        "astId": 7,
        "contract": "src/MasterChef.sol:MasterChef",
        "label": "_owner",
        "offset": 0,
        "slot": "0",
        "type": "t_address"
      },
      {
        "astId": 241,
        "contract": "src/MasterChef.sol:MasterChef",
        "label": "poolInfo",
        "offset": 0,
        "slot": "1",
        "type": "t_array(t_struct(PoolInfo)237_storage)dyn_storage"
      },
      {
        "astId": 248,
        "contract": "src/MasterChef.sol:MasterChef",
        "label": "userInfo",
        "offset": 0,
        "slot": "2",
        "type": "t_mapping(t_uint256,t_mapping(t_address,t_struct(UserInfo)223_storage))"
      },
      {
        "astId": 251,
        "contract": "src/MasterChef.sol:MasterChef",
        "label": "eggToken",
        "offset": 0,
        "slot": "3",
        "type": "t_contract(IERC20)190"
      },
      {
        "astId": 253,
        "contract": "src/MasterChef.sol:MasterChef",
        "label": "eggPerBlock",
        "offset": 0,
        "slot": "4",
        "type": "t_uint128"
      },
      {
        "astId": 255,
        "contract": "src/MasterChef.sol:MasterChef",
        "label": "totalAllocPoint",
        "offset": 16,
        "slot": "4",
        "type": "t_uint128"
      },
      {
        "astId": 257,
        "contract": "src/MasterChef.sol:MasterChef",
        "label": "foundationBalance",
        "offset": 0,
        "slot": "5",
        "type": "t_uint256"
      },
      {
        "astId": 259,
        "contract": "src/MasterChef.sol:MasterChef",
        "label": "foundationProportion",
        "offset": 0,
        "slot": "6",
        "type": "t_uint64"
      },
      {
        "astId": 261,
        "contract": "src/MasterChef.sol:MasterChef",
        "label": "foundation",
        "offset": 8,
        "slot": "6",
        "type": "t_address"
      }
    ],
    "types": {
      "t_address": {
        "encoding": "inplace",
        "label": "address",
        "numberOfBytes": "20"
      },
      "t_array(t_struct(PoolInfo)237_storage)dyn_storage": {
        "base": "t_struct(PoolInfo)237_storage",
        "encoding": "dynamic_array",
        "label": "struct MasterChef.PoolInfo[]",
        "numberOfBytes": "32"
      },
      "t_contract(IERC20)190": {
        "encoding": "inplace",
        "label": "contract IERC20",
        "numberOfBytes": "20"
      },
      "t_mapping(t_address,t_struct(UserInfo)223_storage)": {
        "encoding": "mapping",
        "key": "t_address",
        "label": "mapping(address => struct MasterChef.UserInfo)",
        "numberOfBytes": "32",
        "value": "t_struct(UserInfo)223_storage"
      },
      "t_mapping(t_uint256,t_mapping(t_address,t_struct(UserInfo)223_storage))": {
        "encoding": "mapping",
        "key": "t_uint256",
        "label": "mapping(uint256 => mapping(address => struct MasterChef.UserInfo))",
        "numberOfBytes": "32",
        "value": "t_mapping(t_address,t_struct(UserInfo)223_storage)"
      },
      "t_struct(PoolInfo)237_storage": {
        "encoding": "inplace",
        "label": "struct MasterChef.PoolInfo",
        "members": [
          {
            "astId": 226,
            "contract": "src/MasterChef.sol:MasterChef",
            "label": "lpToken",
            "offset": 0,
            "slot": "0",
            "type": "t_contract(IERC20)190"
          },
          {
            "astId": 228,
            "contract": "src/MasterChef.sol:MasterChef",
            "label": "balance",
            "offset": 0,
            "slot": "1",
            "type": "t_uint256"
          },
          {
            "astId": 230,
            "contract": "src/MasterChef.sol:MasterChef",
            "label": "allocPoint",
            "offset": 0,
            "slot": "2",
            "type": "t_uint128"
          },
          {
            "astId": 232,
            "contract": "src/MasterChef.sol:MasterChef",
            "label": "lastRewardBlock",
            "offset": 0,
            "slot": "3",
            "type": "t_uint256"
          },
          {
            "astId": 234,
            "contract": "src/MasterChef.sol:MasterChef",
            "label": "accEggPerShare",
            "offset": 0,
            "slot": "4",
            "type": "t_uint256"
          },
          {
            "astId": 236,
            "contract": "src/MasterChef.sol:MasterChef",
            "label": "startBlock",
            "offset": 0,
            "slot": "5",
            "type": "t_uint256"
          }
        ],
        "numberOfBytes": "192"
      },
      "t_struct(UserInfo)223_storage": {
        "encoding": "inplace",
        "label": "struct MasterChef.UserInfo",
        "members": [
          {
            "astId": 220,
            "contract": "src/MasterChef.sol:MasterChef",
            "label": "amount",
            "offset": 0,
            "slot": "0",
            "type": "t_uint256"
          },
          {
            "astId": 222,
            "contract": "src/MasterChef.sol:MasterChef",
            "label": "rewardDebt",
            "offset": 0,
            "slot": "1",
            "type": "t_uint256"
          }
        ],
        "numberOfBytes": "64"
      },
      "t_uint128": {
        "encoding": "inplace",
        "label": "uint128",
        "numberOfBytes": "16"
      },
      "t_uint256": {
        "encoding": "inplace",
        "label": "uint256",
        "numberOfBytes": "32"
      },
      "t_uint64": {
        "encoding": "inplace",
        "label": "uint64",
        "numberOfBytes": "8"
      }
    }
  }
}